{
  "_format": "hh-sol-artifact-1",
  "contractName": "IArbToken",
  "sourceName": "contracts/tokenbridge/arbitrum/IArbToken.sol",
  "abi": [
    {
      "inputs": [
        {
          "internalType": "address",
          "name": "account",
          "type": "address"
        },
        {
          "internalType": "uint256",
          "name": "amount",
          "type": "uint256"
        }
      ],
      "name": "bridgeBurn",
      "outputs": [],
      "stateMutability": "nonpayable",
      "type": "function"
    },
    {
      "inputs": [
        {
          "internalType": "address",
          "name": "account",
          "type": "address"
        },
        {
          "internalType": "uint256",
          "name": "amount",
          "type": "uint256"
        }
      ],
      "name": "bridgeMint",
      "outputs": [],
      "stateMutability": "nonpayable",
      "type": "function"
    },
    {
      "inputs": [],
      "name": "l1Address",
      "outputs": [
        {
          "internalType": "address",
          "name": "",
          "type": "address"
        }
      ],
      "stateMutability": "view",
      "type": "function"
    }
  ],
  "bytecode": "0x60566023600b82828239805160001a607314601657fe5b30600052607381538281f3fe73000000000000000000000000000000000000000030146080604052600080fdfea26469706673582212205a29b261e318920c645ac19cfef056d99fbbdc56c052d4836da604c491041bbf64736f6c634300060b0033",
  "deployedBytecode": "0x73000000000000000000000000000000000000000030146080604052600080fdfea26469706673582212205a29b261e318920c645ac19cfef056d99fbbdc56c052d4836da604c491041bbf64736f6c634300060b0033",
  "linkReferences": {},
  "deployedLinkReferences": {}
}