{
  "_format": "hh-sol-artifact-1",
  "contractName": "ICustomToken",
  "sourceName": "contracts/tokenbridge/ethereum/ICustomToken.sol",
  "abi": [
    {
      "inputs": [
        {
          "internalType": "address",
          "name": "account",
          "type": "address"
        }
      ],
      "name": "balanceOf",
      "outputs": [
        {
          "internalType": "uint256",
          "name": "",
          "type": "uint256"
        }
      ],
      "stateMutability": "view",
      "type": "function"
    },
    {
      "inputs": [],
      "name": "isArbitrumEnabled",
      "outputs": [
        {
          "internalType": "uint8",
          "name": "",
          "type": "uint8"
        }
      ],
      "stateMutability": "view",
      "type": "function"
    },
    {
      "inputs": [
        {
          "internalType": "address",
          "name": "l2CustomTokenAddress",
          "type": "address"
        },
        {
          "internalType": "uint256",
          "name": "maxSubmissionCostForCustomBridge",
          "type": "uint256"
        },
        {
          "internalType": "uint256",
          "name": "maxSubmissionCostForRouter",
          "type": "uint256"
        },
        {
          "internalType": "uint256",
          "name": "maxGasForCustomBridge",
          "type": "uint256"
        },
        {
          "internalType": "uint256",
          "name": "maxGasForRouter",
          "type": "uint256"
        },
        {
          "internalType": "uint256",
          "name": "gasPriceBid",
          "type": "uint256"
        },
        {
          "internalType": "uint256",
          "name": "valueForGateway",
          "type": "uint256"
        },
        {
          "internalType": "uint256",
          "name": "valueForRouter",
          "type": "uint256"
        },
        {
          "internalType": "address",
          "name": "creditBackAddress",
          "type": "address"
        }
      ],
      "name": "registerTokenOnL2",
      "outputs": [],
      "stateMutability": "payable",
      "type": "function"
    },
    {
      "inputs": [
        {
          "internalType": "address",
          "name": "sender",
          "type": "address"
        },
        {
          "internalType": "address",
          "name": "recipient",
          "type": "address"
        },
        {
          "internalType": "uint256",
          "name": "amount",
          "type": "uint256"
        }
      ],
      "name": "transferFrom",
      "outputs": [
        {
          "internalType": "bool",
          "name": "",
          "type": "bool"
        }
      ],
      "stateMutability": "nonpayable",
      "type": "function"
    }
  ],
  "bytecode": "0x60566023600b82828239805160001a607314601657fe5b30600052607381538281f3fe73000000000000000000000000000000000000000030146080604052600080fdfea26469706673582212205a29b261e318920c645ac19cfef056d99fbbdc56c052d4836da604c491041bbf64736f6c634300060b0033",
  "deployedBytecode": "0x73000000000000000000000000000000000000000030146080604052600080fdfea26469706673582212205a29b261e318920c645ac19cfef056d99fbbdc56c052d4836da604c491041bbf64736f6c634300060b0033",
  "linkReferences": {},
  "deployedLinkReferences": {}
}