{
    "contractName": "HelloWorldContract",
    "abi": [
        {
            "anonymous": false,
            "inputs": [
                {
                    "indexed": false,
                    "internalType": "string",
                    "name": "message",
                    "type": "string"
                }
            ],
            "name": "HelloWorldCalled",
            "type": "event"
        },
        {
            "inputs": [],
            "name": "helloWorld",
            "outputs": [
                {
                    "internalType": "string",
                    "name": "",
                    "type": "string"
                }
            ],
            "stateMutability": "nonpayable",
            "type": "function"
        }
    ],
    "bytecode": "608060405234801561001057600080fd5b5061014d806100206000396000f3fe608060405234801561001057600080fd5b506004361061002b5760003560e01c8063c605f76c14610030575b600080fd5b61003861004e565b60405161004591906100c9565b60405180910390f35b60607ff07d7941c48432016cd8b4f0efb2fb81096be0d701b29099e46f6ce7975b92d560405161009c906020808252600a908201526912195b1b1bd5dbdc9b1960b21b604082015260600190565b60405180910390a15060408051808201909152600a81526912195b1b1bd5dbdc9b1960b21b602082015290565b600060208083528351808285015260005b818110156100f6578581018301518582016040015282016100da565b506000604082860101526040601f19601f830116850101925050509291505056fea264697066735822122065263b0719e5befa89eaf05f37ace917ea0ed146c926884cfa129e01ad401ba864736f6c63430008130033",
    "sourcePath": "c:/arbitrum/nitro-contracts/src/bridge/HelloWorld.sol",
    "compiler": {
        "name": "solc",
        "version": "0.8.19+commit.7dd6d404"
    },
    "functionHashes": {
        "helloWorld()": "c605f76c"
    },
    "gasEstimates": {
        "creation": {
            "codeDepositCost": "66600",
            "executionCost": "117",
            "totalCost": "66717"
        },
        "external": {
            "helloWorld()": "infinite"
        }
    }
}