{
    "contractName": "Inbox",
    "abi": [
        {
            "inputs": [
                {
                    "internalType": "uint256",
                    "name": "_maxDataSize",
                    "type": "uint256"
                }
            ],
            "stateMutability": "nonpayable",
            "type": "constructor"
        },
        {
            "inputs": [
                {
                    "internalType": "uint256",
                    "name": "dataLength",
                    "type": "uint256"
                },
                {
                    "internalType": "uint256",
                    "name": "maxDataLength",
                    "type": "uint256"
                }
            ],
            "name": "DataTooLarge",
            "type": "error"
        },
        {
            "inputs": [],
            "name": "GasLimitTooLarge",
            "type": "error"
        },
        {
            "inputs": [
                {
                    "internalType": "uint256",
                    "name": "expected",
                    "type": "uint256"
                },
                {
                    "internalType": "uint256",
                    "name": "actual",
                    "type": "uint256"
                }
            ],
            "name": "InsufficientSubmissionCost",
            "type": "error"
        },
        {
            "inputs": [
                {
                    "internalType": "uint256",
                    "name": "expected",
                    "type": "uint256"
                },
                {
                    "internalType": "uint256",
                    "name": "actual",
                    "type": "uint256"
                }
            ],
            "name": "InsufficientValue",
            "type": "error"
        },
        {
            "inputs": [],
            "name": "L1Forked",
            "type": "error"
        },
        {
            "inputs": [
                {
                    "internalType": "address",
                    "name": "origin",
                    "type": "address"
                }
            ],
            "name": "NotAllowedOrigin",
            "type": "error"
        },
        {
            "inputs": [],
            "name": "NotForked",
            "type": "error"
        },
        {
            "inputs": [],
            "name": "NotOrigin",
            "type": "error"
        },
        {
            "inputs": [
                {
                    "internalType": "address",
                    "name": "sender",
                    "type": "address"
                },
                {
                    "internalType": "address",
                    "name": "owner",
                    "type": "address"
                }
            ],
            "name": "NotOwner",
            "type": "error"
        },
        {
            "inputs": [
                {
                    "internalType": "address",
                    "name": "sender",
                    "type": "address"
                },
                {
                    "internalType": "address",
                    "name": "rollup",
                    "type": "address"
                },
                {
                    "internalType": "address",
                    "name": "owner",
                    "type": "address"
                }
            ],
            "name": "NotRollupOrOwner",
            "type": "error"
        },
        {
            "inputs": [
                {
                    "internalType": "address",
                    "name": "from",
                    "type": "address"
                },
                {
                    "internalType": "address",
                    "name": "to",
                    "type": "address"
                },
                {
                    "internalType": "uint256",
                    "name": "l2CallValue",
                    "type": "uint256"
                },
                {
                    "internalType": "uint256",
                    "name": "deposit",
                    "type": "uint256"
                },
                {
                    "internalType": "uint256",
                    "name": "maxSubmissionCost",
                    "type": "uint256"
                },
                {
                    "internalType": "address",
                    "name": "excessFeeRefundAddress",
                    "type": "address"
                },
                {
                    "internalType": "address",
                    "name": "callValueRefundAddress",
                    "type": "address"
                },
                {
                    "internalType": "uint256",
                    "name": "gasLimit",
                    "type": "uint256"
                },
                {
                    "internalType": "uint256",
                    "name": "maxFeePerGas",
                    "type": "uint256"
                },
                {
                    "internalType": "bytes",
                    "name": "data",
                    "type": "bytes"
                }
            ],
            "name": "RetryableData",
            "type": "error"
        },
        {
            "anonymous": false,
            "inputs": [
                {
                    "indexed": true,
                    "internalType": "address",
                    "name": "user",
                    "type": "address"
                },
                {
                    "indexed": false,
                    "internalType": "bool",
                    "name": "val",
                    "type": "bool"
                }
            ],
            "name": "AllowListAddressSet",
            "type": "event"
        },
        {
            "anonymous": false,
            "inputs": [
                {
                    "indexed": false,
                    "internalType": "bool",
                    "name": "isEnabled",
                    "type": "bool"
                }
            ],
            "name": "AllowListEnabledUpdated",
            "type": "event"
        },
        {
            "anonymous": false,
            "inputs": [
                {
                    "indexed": true,
                    "internalType": "uint256",
                    "name": "messageNum",
                    "type": "uint256"
                },
                {
                    "indexed": false,
                    "internalType": "bytes",
                    "name": "data",
                    "type": "bytes"
                }
            ],
            "name": "InboxMessageDelivered",
            "type": "event"
        },
        {
            "anonymous": false,
            "inputs": [
                {
                    "indexed": true,
                    "internalType": "uint256",
                    "name": "messageNum",
                    "type": "uint256"
                }
            ],
            "name": "InboxMessageDeliveredFromOrigin",
            "type": "event"
        },
        {
            "anonymous": false,
            "inputs": [
                {
                    "indexed": false,
                    "internalType": "address",
                    "name": "account",
                    "type": "address"
                }
            ],
            "name": "Paused",
            "type": "event"
        },
        {
            "anonymous": false,
            "inputs": [
                {
                    "indexed": false,
                    "internalType": "address",
                    "name": "account",
                    "type": "address"
                }
            ],
            "name": "Unpaused",
            "type": "event"
        },
        {
            "inputs": [],
            "name": "allowListEnabled",
            "outputs": [
                {
                    "internalType": "bool",
                    "name": "",
                    "type": "bool"
                }
            ],
            "stateMutability": "view",
            "type": "function"
        },
        {
            "inputs": [],
            "name": "bridge",
            "outputs": [
                {
                    "internalType": "contract IBridge",
                    "name": "",
                    "type": "address"
                }
            ],
            "stateMutability": "view",
            "type": "function"
        },
        {
            "inputs": [
                {
                    "internalType": "uint256",
                    "name": "dataLength",
                    "type": "uint256"
                },
                {
                    "internalType": "uint256",
                    "name": "baseFee",
                    "type": "uint256"
                }
            ],
            "name": "calculateRetryableSubmissionFee",
            "outputs": [
                {
                    "internalType": "uint256",
                    "name": "",
                    "type": "uint256"
                }
            ],
            "stateMutability": "view",
            "type": "function"
        },
        {
            "inputs": [
                {
                    "internalType": "address",
                    "name": "to",
                    "type": "address"
                },
                {
                    "internalType": "uint256",
                    "name": "l2CallValue",
                    "type": "uint256"
                },
                {
                    "internalType": "uint256",
                    "name": "maxSubmissionCost",
                    "type": "uint256"
                },
                {
                    "internalType": "address",
                    "name": "excessFeeRefundAddress",
                    "type": "address"
                },
                {
                    "internalType": "address",
                    "name": "callValueRefundAddress",
                    "type": "address"
                },
                {
                    "internalType": "uint256",
                    "name": "gasLimit",
                    "type": "uint256"
                },
                {
                    "internalType": "uint256",
                    "name": "maxFeePerGas",
                    "type": "uint256"
                },
                {
                    "internalType": "bytes",
                    "name": "data",
                    "type": "bytes"
                }
            ],
            "name": "createRetryableTicket",
            "outputs": [
                {
                    "internalType": "uint256",
                    "name": "",
                    "type": "uint256"
                }
            ],
            "stateMutability": "payable",
            "type": "function"
        },
        {
            "inputs": [
                {
                    "internalType": "address",
                    "name": "to",
                    "type": "address"
                },
                {
                    "internalType": "uint256",
                    "name": "l2CallValue",
                    "type": "uint256"
                },
                {
                    "internalType": "uint256",
                    "name": "maxSubmissionCost",
                    "type": "uint256"
                },
                {
                    "internalType": "address",
                    "name": "excessFeeRefundAddress",
                    "type": "address"
                },
                {
                    "internalType": "address",
                    "name": "callValueRefundAddress",
                    "type": "address"
                },
                {
                    "internalType": "uint256",
                    "name": "gasLimit",
                    "type": "uint256"
                },
                {
                    "internalType": "uint256",
                    "name": "maxFeePerGas",
                    "type": "uint256"
                },
                {
                    "internalType": "bytes",
                    "name": "data",
                    "type": "bytes"
                }
            ],
            "name": "createRetryableTicketNoRefundAliasRewrite",
            "outputs": [
                {
                    "internalType": "uint256",
                    "name": "",
                    "type": "uint256"
                }
            ],
            "stateMutability": "payable",
            "type": "function"
        },
        {
            "inputs": [
                {
                    "internalType": "uint256",
                    "name": "",
                    "type": "uint256"
                }
            ],
            "name": "depositEth",
            "outputs": [
                {
                    "internalType": "uint256",
                    "name": "",
                    "type": "uint256"
                }
            ],
            "stateMutability": "payable",
            "type": "function"
        },
        {
            "inputs": [],
            "name": "depositEth",
            "outputs": [
                {
                    "internalType": "uint256",
                    "name": "",
                    "type": "uint256"
                }
            ],
            "stateMutability": "payable",
            "type": "function"
        },
        {
            "inputs": [],
            "name": "getProxyAdmin",
            "outputs": [
                {
                    "internalType": "address",
                    "name": "",
                    "type": "address"
                }
            ],
            "stateMutability": "view",
            "type": "function"
        },
        {
            "inputs": [
                {
                    "internalType": "contract IBridge",
                    "name": "_bridge",
                    "type": "address"
                },
                {
                    "internalType": "contract ISequencerInbox",
                    "name": "_sequencerInbox",
                    "type": "address"
                }
            ],
            "name": "initialize",
            "outputs": [],
            "stateMutability": "nonpayable",
            "type": "function"
        },
        {
            "inputs": [
                {
                    "internalType": "address",
                    "name": "",
                    "type": "address"
                }
            ],
            "name": "isAllowed",
            "outputs": [
                {
                    "internalType": "bool",
                    "name": "",
                    "type": "bool"
                }
            ],
            "stateMutability": "view",
            "type": "function"
        },
        {
            "inputs": [],
            "name": "maxDataSize",
            "outputs": [
                {
                    "internalType": "uint256",
                    "name": "",
                    "type": "uint256"
                }
            ],
            "stateMutability": "view",
            "type": "function"
        },
        {
            "inputs": [],
            "name": "pause",
            "outputs": [],
            "stateMutability": "nonpayable",
            "type": "function"
        },
        {
            "inputs": [],
            "name": "paused",
            "outputs": [
                {
                    "internalType": "bool",
                    "name": "",
                    "type": "bool"
                }
            ],
            "stateMutability": "view",
            "type": "function"
        },
        {
            "inputs": [
                {
                    "internalType": "contract IBridge",
                    "name": "",
                    "type": "address"
                }
            ],
            "name": "postUpgradeInit",
            "outputs": [],
            "stateMutability": "nonpayable",
            "type": "function"
        },
        {
            "inputs": [
                {
                    "internalType": "uint256",
                    "name": "gasLimit",
                    "type": "uint256"
                },
                {
                    "internalType": "uint256",
                    "name": "maxFeePerGas",
                    "type": "uint256"
                },
                {
                    "internalType": "address",
                    "name": "to",
                    "type": "address"
                },
                {
                    "internalType": "uint256",
                    "name": "value",
                    "type": "uint256"
                },
                {
                    "internalType": "bytes",
                    "name": "data",
                    "type": "bytes"
                }
            ],
            "name": "sendContractTransaction",
            "outputs": [
                {
                    "internalType": "uint256",
                    "name": "",
                    "type": "uint256"
                }
            ],
            "stateMutability": "nonpayable",
            "type": "function"
        },
        {
            "inputs": [
                {
                    "internalType": "uint256",
                    "name": "gasLimit",
                    "type": "uint256"
                },
                {
                    "internalType": "uint256",
                    "name": "maxFeePerGas",
                    "type": "uint256"
                },
                {
                    "internalType": "address",
                    "name": "to",
                    "type": "address"
                },
                {
                    "internalType": "bytes",
                    "name": "data",
                    "type": "bytes"
                }
            ],
            "name": "sendL1FundedContractTransaction",
            "outputs": [
                {
                    "internalType": "uint256",
                    "name": "",
                    "type": "uint256"
                }
            ],
            "stateMutability": "payable",
            "type": "function"
        },
        {
            "inputs": [
                {
                    "internalType": "uint256",
                    "name": "gasLimit",
                    "type": "uint256"
                },
                {
                    "internalType": "uint256",
                    "name": "maxFeePerGas",
                    "type": "uint256"
                },
                {
                    "internalType": "uint256",
                    "name": "nonce",
                    "type": "uint256"
                },
                {
                    "internalType": "address",
                    "name": "to",
                    "type": "address"
                },
                {
                    "internalType": "bytes",
                    "name": "data",
                    "type": "bytes"
                }
            ],
            "name": "sendL1FundedUnsignedTransaction",
            "outputs": [
                {
                    "internalType": "uint256",
                    "name": "",
                    "type": "uint256"
                }
            ],
            "stateMutability": "payable",
            "type": "function"
        },
        {
            "inputs": [
                {
                    "internalType": "uint256",
                    "name": "gasLimit",
                    "type": "uint256"
                },
                {
                    "internalType": "uint256",
                    "name": "maxFeePerGas",
                    "type": "uint256"
                },
                {
                    "internalType": "uint256",
                    "name": "nonce",
                    "type": "uint256"
                },
                {
                    "internalType": "address",
                    "name": "to",
                    "type": "address"
                },
                {
                    "internalType": "bytes",
                    "name": "data",
                    "type": "bytes"
                }
            ],
            "name": "sendL1FundedUnsignedTransactionToFork",
            "outputs": [
                {
                    "internalType": "uint256",
                    "name": "",
                    "type": "uint256"
                }
            ],
            "stateMutability": "payable",
            "type": "function"
        },
        {
            "inputs": [
                {
                    "internalType": "bytes",
                    "name": "messageData",
                    "type": "bytes"
                }
            ],
            "name": "sendL2Message",
            "outputs": [
                {
                    "internalType": "uint256",
                    "name": "",
                    "type": "uint256"
                }
            ],
            "stateMutability": "nonpayable",
            "type": "function"
        },
        {
            "inputs": [
                {
                    "internalType": "bytes",
                    "name": "messageData",
                    "type": "bytes"
                }
            ],
            "name": "sendL2MessageFromOrigin",
            "outputs": [
                {
                    "internalType": "uint256",
                    "name": "",
                    "type": "uint256"
                }
            ],
            "stateMutability": "nonpayable",
            "type": "function"
        },
        {
            "inputs": [
                {
                    "internalType": "uint256",
                    "name": "gasLimit",
                    "type": "uint256"
                },
                {
                    "internalType": "uint256",
                    "name": "maxFeePerGas",
                    "type": "uint256"
                },
                {
                    "internalType": "uint256",
                    "name": "nonce",
                    "type": "uint256"
                },
                {
                    "internalType": "address",
                    "name": "to",
                    "type": "address"
                },
                {
                    "internalType": "uint256",
                    "name": "value",
                    "type": "uint256"
                },
                {
                    "internalType": "bytes",
                    "name": "data",
                    "type": "bytes"
                }
            ],
            "name": "sendUnsignedTransaction",
            "outputs": [
                {
                    "internalType": "uint256",
                    "name": "",
                    "type": "uint256"
                }
            ],
            "stateMutability": "nonpayable",
            "type": "function"
        },
        {
            "inputs": [
                {
                    "internalType": "uint256",
                    "name": "gasLimit",
                    "type": "uint256"
                },
                {
                    "internalType": "uint256",
                    "name": "maxFeePerGas",
                    "type": "uint256"
                },
                {
                    "internalType": "uint256",
                    "name": "nonce",
                    "type": "uint256"
                },
                {
                    "internalType": "address",
                    "name": "to",
                    "type": "address"
                },
                {
                    "internalType": "uint256",
                    "name": "value",
                    "type": "uint256"
                },
                {
                    "internalType": "bytes",
                    "name": "data",
                    "type": "bytes"
                }
            ],
            "name": "sendUnsignedTransactionToFork",
            "outputs": [
                {
                    "internalType": "uint256",
                    "name": "",
                    "type": "uint256"
                }
            ],
            "stateMutability": "nonpayable",
            "type": "function"
        },
        {
            "inputs": [
                {
                    "internalType": "uint256",
                    "name": "gasLimit",
                    "type": "uint256"
                },
                {
                    "internalType": "uint256",
                    "name": "maxFeePerGas",
                    "type": "uint256"
                },
                {
                    "internalType": "uint256",
                    "name": "nonce",
                    "type": "uint256"
                },
                {
                    "internalType": "uint256",
                    "name": "value",
                    "type": "uint256"
                },
                {
                    "internalType": "address",
                    "name": "withdrawTo",
                    "type": "address"
                }
            ],
            "name": "sendWithdrawEthToFork",
            "outputs": [
                {
                    "internalType": "uint256",
                    "name": "",
                    "type": "uint256"
                }
            ],
            "stateMutability": "nonpayable",
            "type": "function"
        },
        {
            "inputs": [],
            "name": "sequencerInbox",
            "outputs": [
                {
                    "internalType": "contract ISequencerInbox",
                    "name": "",
                    "type": "address"
                }
            ],
            "stateMutability": "view",
            "type": "function"
        },
        {
            "inputs": [
                {
                    "internalType": "address[]",
                    "name": "user",
                    "type": "address[]"
                },
                {
                    "internalType": "bool[]",
                    "name": "val",
                    "type": "bool[]"
                }
            ],
            "name": "setAllowList",
            "outputs": [],
            "stateMutability": "nonpayable",
            "type": "function"
        },
        {
            "inputs": [
                {
                    "internalType": "bool",
                    "name": "_allowListEnabled",
                    "type": "bool"
                }
            ],
            "name": "setAllowListEnabled",
            "outputs": [],
            "stateMutability": "nonpayable",
            "type": "function"
        },
        {
            "inputs": [],
            "name": "unpause",
            "outputs": [],
            "stateMutability": "nonpayable",
            "type": "function"
        },
        {
            "inputs": [
                {
                    "internalType": "address",
                    "name": "to",
                    "type": "address"
                },
                {
                    "internalType": "uint256",
                    "name": "l2CallValue",
                    "type": "uint256"
                },
                {
                    "internalType": "uint256",
                    "name": "maxSubmissionCost",
                    "type": "uint256"
                },
                {
                    "internalType": "address",
                    "name": "excessFeeRefundAddress",
                    "type": "address"
                },
                {
                    "internalType": "address",
                    "name": "callValueRefundAddress",
                    "type": "address"
                },
                {
                    "internalType": "uint256",
                    "name": "gasLimit",
                    "type": "uint256"
                },
                {
                    "internalType": "uint256",
                    "name": "maxFeePerGas",
                    "type": "uint256"
                },
                {
                    "internalType": "bytes",
                    "name": "data",
                    "type": "bytes"
                }
            ],
            "name": "unsafeCreateRetryableTicket",
            "outputs": [
                {
                    "internalType": "uint256",
                    "name": "",
                    "type": "uint256"
                }
            ],
            "stateMutability": "payable",
            "type": "function"
        }
    ],
    "bytecode": "60e0604052306080524660c05234801561001857600080fd5b50604051620029873803806200298783398101604081905261003991610041565b60a05261005a565b60006020828403121561005357600080fd5b5051919050565b60805160a05160c0516128be620000c9600039600081816105a50152818161081501528181611041015281816113cf01526117cc0152600081816104c301528181610874015281816108b001528181611a4d0152611a8d015260008181610beb015261145801526128be6000f3fe6080604052600436106101b65760003560e01c806370665f14116100ec578063c474d2c51161008a578063e78cea9211610064578063e78cea9214610491578063e8eb1dc3146104b1578063ee35f327146104e5578063efeadb6d1461050557600080fd5b8063c474d2c51461043e578063e3de72a51461045e578063e6bd12cf1461047e57600080fd5b80638b3240a0116100c65780638b3240a01461037d578063a66b327d146103ce578063b75436bb146103ee578063babcc5391461040e57600080fd5b806370665f14146103285780638456cb59146103485780638a631aa61461035d57600080fd5b8063485cc955116101595780635e916758116101335780635e916758146102dc578063679b6ded146102ef57806367ef3ab8146103025780636e6e8a6a1461031557600080fd5b8063485cc955146102845780635075788b146102a45780635c975abb146102c457600080fd5b80631fe927cf116101955780631fe927cf1461021457806322bd5c1c146102345780633f4ba83a14610265578063439370b11461027c57600080fd5b8062f72382146101bb5780630f4d14e9146101ee5780631b871c8d14610201575b600080fd5b3480156101c757600080fd5b506101db6101d6366004611fa9565b610525565b6040519081526020015b60405180910390f35b6101db6101fc366004612025565b610687565b6101db61020f36600461203e565b61070b565b34801561022057600080fd5b506101db61022f3660046120e2565b61079e565b34801561024057600080fd5b5060665461025590600160a01b900460ff1681565b60405190151581526020016101e5565b34801561027157600080fd5b5061027a61093a565b005b6101db610a5c565b34801561029057600080fd5b5061027a61029f366004612123565b610b3d565b3480156102b057600080fd5b506101db6102bf366004611fa9565b610c4a565b3480156102d057600080fd5b5060335460ff16610255565b6101db6102ea36600461215c565b610d15565b6101db6102fd36600461203e565b610de8565b6101db6103103660046121c5565b610e6e565b6101db61032336600461203e565b610f44565b34801561033457600080fd5b506101db610343366004612237565b610fca565b34801561035457600080fd5b5061027a611138565b34801561036957600080fd5b506101db610378366004612284565b611257565b34801561038957600080fd5b507fb53127684a568b3173ae13b9f8a6016e243e63b6e8ee1178d6a717850b5d6103546001600160a01b03165b6040516001600160a01b0390911681526020016101e5565b3480156103da57600080fd5b506101db6103e93660046122d8565b611320565b3480156103fa57600080fd5b506101db6104093660046120e2565b611358565b34801561041a57600080fd5b506102556104293660046122fa565b60676020526000908152604090205460ff1681565b34801561044a57600080fd5b5061027a6104593660046122fa565b61144e565b34801561046a57600080fd5b5061027a610479366004612402565b6114f3565b6101db61048c3660046121c5565b611755565b34801561049d57600080fd5b506065546103b6906001600160a01b031681565b3480156104bd57600080fd5b506101db7f000000000000000000000000000000000000000000000000000000000000000081565b3480156104f157600080fd5b506066546103b6906001600160a01b031681565b34801561051157600080fd5b5061027a6105203660046124c3565b61188c565b600061053360335460ff1690565b156105595760405162461bcd60e51b8152600401610550906124de565b60405180910390fd5b606654600160a01b900460ff16801561058257503260009081526067602052604090205460ff16155b156105a257604051630f51ed7160e41b8152326004820152602401610550565b467f0000000000000000000000000000000000000000000000000000000000000000036105e257604051635180dd8360e11b815260040160405180910390fd5b3332146106025760405163feb3d07160e01b815260040160405180910390fd5b6001600160401b0388111561062a5760405163107c527b60e01b815260040160405180910390fd5b61067b600361111061111160901b0119330160008b8b8b8b6001600160a01b03168b8b8b604051602001610665989796959493929190612508565b6040516020818303038152906040526000611a49565b98975050505050505050565b600061069560335460ff1690565b156106b25760405162461bcd60e51b8152600401610550906124de565b606654600160a01b900460ff1680156106db57503260009081526067602052604090205460ff16155b156106fb57604051630f51ed7160e41b8152326004820152602401610550565b610703610a5c565b90505b919050565b600061071960335460ff1690565b156107365760405162461bcd60e51b8152600401610550906124de565b606654600160a01b900460ff16801561075f57503260009081526067602052604090205460ff16155b1561077f57604051630f51ed7160e41b8152326004820152602401610550565b6107908a8a8a8a8a8a8a8a8a610f44565b9a9950505050505050505050565b60006107ac60335460ff1690565b156107c95760405162461bcd60e51b8152600401610550906124de565b606654600160a01b900460ff1680156107f257503260009081526067602052604090205460ff16155b1561081257604051630f51ed7160e41b8152326004820152602401610550565b467f0000000000000000000000000000000000000000000000000000000000000000146108525760405163c6ea680360e01b815260040160405180910390fd5b3332146108725760405163feb3d07160e01b815260040160405180910390fd5b7f00000000000000000000000000000000000000000000000000000000000000008211156108dc57604051634634691b60e01b8152600481018390527f00000000000000000000000000000000000000000000000000000000000000006024820152604401610550565b600061090360033386866040516108f492919061254e565b60405180910390206000611b11565b60405190915081907fab532385be8f1005a4b6ba8fa20a2245facb346134ac739fe9a5198dc1580b9c90600090a290505b92915050565b6065546040805163cb23bcb560e01b815290516000926001600160a01b03169163cb23bcb59160048083019260209291908290030181865afa158015610984573d6000803e3d6000fd5b505050506040513d601f19601f820116820180604052508101906109a8919061255e565b9050336001600160a01b03821614610a51576000816001600160a01b0316638da5cb5b6040518163ffffffff1660e01b8152600401602060405180830381865afa1580156109fa573d6000803e3d6000fd5b505050506040513d601f19601f82011682018060405250810190610a1e919061255e565b9050336001600160a01b03821614610a4f57338282604051630739600760e01b81526004016105509392919061257b565b505b610a59611bb5565b50565b6000610a6a60335460ff1690565b15610a875760405162461bcd60e51b8152600401610550906124de565b606654600160a01b900460ff168015610ab057503260009081526067602052604090205460ff16155b15610ad057604051630f51ed7160e41b8152326004820152602401610550565b33803b151580610ae05750323314155b15610af357503361111161111160901b01015b6040516bffffffffffffffffffffffff19606083901b166020820152346034820152610b3790600c9033906054015b60405160208183030381529060405234611a49565b91505090565b600054610100900460ff16610b585760005460ff1615610b5c565b303b155b610bbf5760405162461bcd60e51b815260206004820152602e60248201527f496e697469616c697a61626c653a20636f6e747261637420697320616c72656160448201526d191e481a5b9a5d1a585b1a5e995960921b6064820152608401610550565b600054610100900460ff16158015610be1576000805461ffff19166101011790555b6001600160a01b037f0000000000000000000000000000000000000000000000000000000000000000163003610c295760405162461bcd60e51b81526004016105509061259e565b610c338383611c48565b8015610c45576000805461ff00191690555b505050565b6000610c5860335460ff1690565b15610c755760405162461bcd60e51b8152600401610550906124de565b606654600160a01b900460ff168015610c9e57503260009081526067602052604090205460ff16155b15610cbe57604051630f51ed7160e41b8152326004820152602401610550565b6001600160401b03881115610ce65760405163107c527b60e01b815260040160405180910390fd5b61067b60033360008b8b8b8b6001600160a01b03168b8b8b604051602001610665989796959493929190612508565b6000610d2360335460ff1690565b15610d405760405162461bcd60e51b8152600401610550906124de565b606654600160a01b900460ff168015610d6957503260009081526067602052604090205460ff16155b15610d8957604051630f51ed7160e41b8152326004820152602401610550565b6001600160401b03861115610db15760405163107c527b60e01b815260040160405180910390fd5b610dde60073360018989896001600160a01b0316348a8a604051602001610b2297969594939291906125ea565b9695505050505050565b6000610df660335460ff1690565b15610e135760405162461bcd60e51b8152600401610550906124de565b606654600160a01b900460ff168015610e3c57503260009081526067602052604090205460ff16155b15610e5c57604051630f51ed7160e41b8152326004820152602401610550565b6107908a8a8a8a8a8a8a348b8b611cb4565b6000610e7c60335460ff1690565b15610e995760405162461bcd60e51b8152600401610550906124de565b606654600160a01b900460ff168015610ec257503260009081526067602052604090205460ff16155b15610ee257604051630f51ed7160e41b8152326004820152602401610550565b6001600160401b03871115610f0a5760405163107c527b60e01b815260040160405180910390fd5b610f3960073360008a8a8a8a6001600160a01b0316348b8b604051602001610b22989796959493929190612508565b979650505050505050565b6000610f5260335460ff1690565b15610f6f5760405162461bcd60e51b8152600401610550906124de565b606654600160a01b900460ff168015610f9857503260009081526067602052604090205460ff16155b15610fb857604051630f51ed7160e41b8152326004820152602401610550565b6107908a8a8a8a8a8a8a348b8b611d7c565b6000610fd860335460ff1690565b15610ff55760405162461bcd60e51b8152600401610550906124de565b606654600160a01b900460ff16801561101e57503260009081526067602052604090205460ff16155b1561103e57604051630f51ed7160e41b8152326004820152602401610550565b467f00000000000000000000000000000000000000000000000000000000000000000361107e57604051635180dd8360e11b815260040160405180910390fd5b33321461109e5760405163feb3d07160e01b815260040160405180910390fd5b6001600160401b038611156110c65760405163107c527b60e01b815260040160405180910390fd5b604080516001600160a01b0384166024808301919091528251808303909101815260449091018252602080820180516001600160e01b03166325e1606360e01b1790529151610dde926003923361111061111160901b01190192610665926000928d928d928d926064928e920161264d565b6065546040805163cb23bcb560e01b815290516000926001600160a01b03169163cb23bcb59160048083019260209291908290030181865afa158015611182573d6000803e3d6000fd5b505050506040513d601f19601f820116820180604052508101906111a6919061255e565b9050336001600160a01b0382161461124f576000816001600160a01b0316638da5cb5b6040518163ffffffff1660e01b8152600401602060405180830381865afa1580156111f8573d6000803e3d6000fd5b505050506040513d601f19601f8201168201806040525081019061121c919061255e565b9050336001600160a01b0382161461124d57338282604051630739600760e01b81526004016105509392919061257b565b505b610a59611e90565b600061126560335460ff1690565b156112825760405162461bcd60e51b8152600401610550906124de565b606654600160a01b900460ff1680156112ab57503260009081526067602052604090205460ff16155b156112cb57604051630f51ed7160e41b8152326004820152602401610550565b6001600160401b038711156112f35760405163107c527b60e01b815260040160405180910390fd5b610f3960033360018a8a8a6001600160a01b03168a8a8a60405160200161066597969594939291906125ea565b6000811561132e5781611330565b485b61133b8460066126b5565b611347906105786126cc565b61135191906126b5565b9392505050565b600061136660335460ff1690565b156113835760405162461bcd60e51b8152600401610550906124de565b606654600160a01b900460ff1680156113ac57503260009081526067602052604090205460ff16155b156113cc57604051630f51ed7160e41b8152326004820152602401610550565b467f00000000000000000000000000000000000000000000000000000000000000001461140c5760405163c6ea680360e01b815260040160405180910390fd5b61135160033385858080601f01602080910402602001604051908101604052809392919081815260200183838082843760009201829052509250611a49915050565b6001600160a01b037f00000000000000000000000000000000000000000000000000000000000000001630036114965760405162461bcd60e51b81526004016105509061259e565b7fb53127684a568b3173ae13b9f8a6016e243e63b6e8ee1178d6a717850b5d61038054336001600160a01b03821614610c4557604051631194af8760e11b81523360048201526001600160a01b0382166024820152604401610550565b6065546040805163cb23bcb560e01b815290516000926001600160a01b03169163cb23bcb59160048083019260209291908290030181865afa15801561153d573d6000803e3d6000fd5b505050506040513d601f19601f82011682018060405250810190611561919061255e565b9050336001600160a01b0382161461160a576000816001600160a01b0316638da5cb5b6040518163ffffffff1660e01b8152600401602060405180830381865afa1580156115b3573d6000803e3d6000fd5b505050506040513d601f19601f820116820180604052508101906115d7919061255e565b9050336001600160a01b0382161461160857338282604051630739600760e01b81526004016105509392919061257b565b505b815183511461164b5760405162461bcd60e51b815260206004820152600d60248201526c1253959053125117d253941555609a1b6044820152606401610550565b60005b835181101561174f57828181518110611669576116696126df565b602002602001015160676000868481518110611687576116876126df565b60200260200101516001600160a01b03166001600160a01b0316815260200190815260200160002060006101000a81548160ff0219169083151502179055508381815181106116d8576116d86126df565b60200260200101516001600160a01b03167fd9739f45a01ce092c5cdb3d68f63d63d21676b1c6c0b4f9cbc6be4cf5449595a84838151811061171c5761171c6126df565b6020026020010151604051611735911515815260200190565b60405180910390a280611747816126f5565b91505061164e565b50505050565b600061176360335460ff1690565b156117805760405162461bcd60e51b8152600401610550906124de565b606654600160a01b900460ff1680156117a957503260009081526067602052604090205460ff16155b156117c957604051630f51ed7160e41b8152326004820152602401610550565b467f00000000000000000000000000000000000000000000000000000000000000000361180957604051635180dd8360e11b815260040160405180910390fd5b3332146118295760405163feb3d07160e01b815260040160405180910390fd5b6001600160401b038711156118515760405163107c527b60e01b815260040160405180910390fd5b610f39600761111061111160901b0119330160008a8a8a8a6001600160a01b0316348b8b604051602001610b22989796959493929190612508565b6065546040805163cb23bcb560e01b815290516000926001600160a01b03169163cb23bcb59160048083019260209291908290030181865afa1580156118d6573d6000803e3d6000fd5b505050506040513d601f19601f820116820180604052508101906118fa919061255e565b9050336001600160a01b038216146119a3576000816001600160a01b0316638da5cb5b6040518163ffffffff1660e01b8152600401602060405180830381865afa15801561194c573d6000803e3d6000fd5b505050506040513d601f19601f82011682018060405250810190611970919061255e565b9050336001600160a01b038216146119a157338282604051630739600760e01b81526004016105509392919061257b565b505b606654600160a01b900460ff161515821515036119f05760405162461bcd60e51b815260206004820152600b60248201526a1053149150511657d4d15560aa1b6044820152606401610550565b60668054831515600160a01b0260ff60a01b199091161790556040517f16435b45f7482047f839a6a19d291442627200f52cad2803c595150d0d440eb390611a3d90841515815260200190565b60405180910390a15050565b60007f000000000000000000000000000000000000000000000000000000000000000083511115611ab9578251604051634634691b60e01b815260048101919091527f00000000000000000000000000000000000000000000000000000000000000006024820152604401610550565b6000611ace8686868051906020012086611b11565b9050807fff64905f73a67fb594e0f940a8075a860db489ad991e032f48c81123eb52d60b85604051611b00919061270e565b60405180910390a295945050505050565b6065546000906001600160a01b0316638db5993b838761111161111160901b0188016040516001600160e01b031960e086901b16815260ff90921660048301526001600160a01b031660248201526044810187905260640160206040518083038185885af1158015611b87573d6000803e3d6000fd5b50505050506040513d601f19601f82011682018060405250810190611bac9190612741565b95945050505050565b60335460ff16611bfe5760405162461bcd60e51b815260206004820152601460248201527314185d5cd8589b194e881b9bdd081c185d5cd95960621b6044820152606401610550565b6033805460ff191690557f5db9ee0a495bf2e6ff9c91a7834c1ba4fdd244a5e8aa4e537bd38aeae4b073aa335b6040516001600160a01b03909116815260200160405180910390a1565b600054610100900460ff16611c6f5760405162461bcd60e51b81526004016105509061275a565b606580546001600160a01b038085166001600160a01b031990921691909117909155606680546001600160a81b031916918316919091179055611cb0611ee8565b5050565b6000611cc085876126b5565b611cca8b8b6126cc565b611cd491906126cc565b841015611d1d57611ce585876126b5565b611cef8b8b6126cc565b611cf991906126cc565b604051631c102d6360e21b8152600481019190915260248101859052604401610550565b6001600160a01b0388163b15611d3c5761111161111160901b01880197505b6001600160a01b0387163b15611d5b5761111161111160901b01870196505b611d6d8b8b8b8b8b8b8b8b8b8b611d7c565b9b9a5050505050505050505050565b60008560011480611d8d5750846001145b15611dc157338b8b868c8c8c8c8c8b8b6040516307c266e360e01b81526004016105509b9a999897969594939291906127a5565b6001600160401b03861115611de95760405163107c527b60e01b815260040160405180910390fd5b6000611df58348611320565b9050808a1015611e2257604051637d6f91c560e11b815260048101829052602481018b9052604401610550565b611e806009338e6001600160a01b03168e898f8f6001600160a01b03168f6001600160a01b03168f8f8e8e90508f8f604051602001611e6b9b9a9998979695949392919061282e565b60405160208183030381529060405288611a49565b9c9b505050505050505050505050565b60335460ff1615611eb35760405162461bcd60e51b8152600401610550906124de565b6033805460ff191660011790557f62e78cea01bee320cd4e420270b5ea74000d11b0c9f74754ebdbfc544b05a258611c2b3390565b600054610100900460ff16611f0f5760405162461bcd60e51b81526004016105509061275a565b611f17611f19565b565b600054610100900460ff16611f405760405162461bcd60e51b81526004016105509061275a565b6033805460ff19169055565b6001600160a01b0381168114610a5957600080fd5b60008083601f840112611f7357600080fd5b5081356001600160401b03811115611f8a57600080fd5b602083019150836020828501011115611fa257600080fd5b9250929050565b600080600080600080600060c0888a031215611fc457600080fd5b8735965060208801359550604088013594506060880135611fe481611f4c565b93506080880135925060a08801356001600160401b0381111561200657600080fd5b6120128a828b01611f61565b989b979a50959850939692959293505050565b60006020828403121561203757600080fd5b5035919050565b60008060008060008060008060006101008a8c03121561205d57600080fd5b893561206881611f4c565b985060208a0135975060408a0135965060608a013561208681611f4c565b955060808a013561209681611f4c565b945060a08a0135935060c08a0135925060e08a01356001600160401b038111156120bf57600080fd5b6120cb8c828d01611f61565b915080935050809150509295985092959850929598565b600080602083850312156120f557600080fd5b82356001600160401b0381111561210b57600080fd5b61211785828601611f61565b90969095509350505050565b6000806040838503121561213657600080fd5b823561214181611f4c565b9150602083013561215181611f4c565b809150509250929050565b60008060008060006080868803121561217457600080fd5b8535945060208601359350604086013561218d81611f4c565b925060608601356001600160401b038111156121a857600080fd5b6121b488828901611f61565b969995985093965092949392505050565b60008060008060008060a087890312156121de57600080fd5b86359550602087013594506040870135935060608701356121fe81611f4c565b925060808701356001600160401b0381111561221957600080fd5b61222589828a01611f61565b979a9699509497509295939492505050565b600080600080600060a0868803121561224f57600080fd5b85359450602086013593506040860135925060608601359150608086013561227681611f4c565b809150509295509295909350565b60008060008060008060a0878903121561229d57600080fd5b863595506020870135945060408701356122b681611f4c565b93506060870135925060808701356001600160401b0381111561221957600080fd5b600080604083850312156122eb57600080fd5b50508035926020909101359150565b60006020828403121561230c57600080fd5b813561135181611f4c565b634e487b7160e01b600052604160045260246000fd5b604051601f8201601f191681016001600160401b038111828210171561235557612355612317565b604052919050565b60006001600160401b0382111561237657612376612317565b5060051b60200190565b8035801515811461070657600080fd5b600082601f8301126123a157600080fd5b813560206123b66123b18361235d565b61232d565b82815260059290921b840181019181810190868411156123d557600080fd5b8286015b848110156123f7576123ea81612380565b83529183019183016123d9565b509695505050505050565b6000806040838503121561241557600080fd5b82356001600160401b038082111561242c57600080fd5b818501915085601f83011261244057600080fd5b813560206124506123b18361235d565b82815260059290921b8401810191818101908984111561246f57600080fd5b948201945b8386101561249657853561248781611f4c565b82529482019490820190612474565b965050860135925050808211156124ac57600080fd5b506124b985828601612390565b9150509250929050565b6000602082840312156124d557600080fd5b61135182612380565b60208082526010908201526f14185d5cd8589b194e881c185d5cd95960821b604082015260600190565b60ff60f81b8960f81b168152876001820152866021820152856041820152846061820152836081820152818360a18301376000910160a101908152979650505050505050565b8183823760009101908152919050565b60006020828403121561257057600080fd5b815161135181611f4c565b6001600160a01b0393841681529183166020830152909116604082015260600190565b6020808252602c908201527f46756e6374696f6e206d7573742062652063616c6c6564207468726f7567682060408201526b19195b1959d85d1958d85b1b60a21b606082015260800190565b60ff60f81b8860f81b16815286600182015285602182015284604182015283606182015281836081830137600091016081019081529695505050505050565b60005b8381101561264457818101518382015260200161262c565b50506000910152565b60ff60f81b8860f81b1681528660018201528560218201528460418201528360618201528260818201526000825161268c8160a1850160208701612629565b9190910160a10198975050505050505050565b634e487b7160e01b600052601160045260246000fd5b80820281158282048414176109345761093461269f565b808201808211156109345761093461269f565b634e487b7160e01b600052603260045260246000fd5b6000600182016127075761270761269f565b5060010190565b602081526000825180602084015261272d816040850160208701612629565b601f01601f19169190910160400192915050565b60006020828403121561275357600080fd5b5051919050565b6020808252602b908201527f496e697469616c697a61626c653a20636f6e7472616374206973206e6f74206960408201526a6e697469616c697a696e6760a81b606082015260800190565b6001600160a01b038c811682528b81166020830152604082018b9052606082018a90526080820189905287811660a0830152861660c082015260e0810185905261010081018490526101406101208201819052810182905260006101608385828501376000838501820152601f909301601f19169091019091019b9a5050505050505050505050565b8b81528a60208201528960408201528860608201528760808201528660a08201528560c08201528460e08201528361010082015260006101208385828501376000929093019092019081529b9a505050505050505050505056fea2646970667358221220838e7dd2a1a4cb7be95a7305448cbbee4f77fc8ad04d3c89239192f78e5fb16264736f6c63430008130033",
    "sourcePath": "c:/arbitrum/nitro-contracts/src/bridge/Inbox.sol",
    "compiler": {
        "name": "solc",
        "version": "0.8.19+commit.7dd6d404"
    },
    "functionHashes": {
        "allowListEnabled()": "22bd5c1c",
        "bridge()": "e78cea92",
        "calculateRetryableSubmissionFee(uint256,uint256)": "a66b327d",
        "createRetryableTicket(address,uint256,uint256,address,address,uint256,uint256,bytes)": "679b6ded",
        "createRetryableTicketNoRefundAliasRewrite(address,uint256,uint256,address,address,uint256,uint256,bytes)": "1b871c8d",
        "depositEth()": "439370b1",
        "depositEth(uint256)": "0f4d14e9",
        "getProxyAdmin()": "8b3240a0",
        "initialize(address,address)": "485cc955",
        "isAllowed(address)": "babcc539",
        "maxDataSize()": "e8eb1dc3",
        "pause()": "8456cb59",
        "paused()": "5c975abb",
        "postUpgradeInit(address)": "c474d2c5",
        "sendContractTransaction(uint256,uint256,address,uint256,bytes)": "8a631aa6",
        "sendL1FundedContractTransaction(uint256,uint256,address,bytes)": "5e916758",
        "sendL1FundedUnsignedTransaction(uint256,uint256,uint256,address,bytes)": "67ef3ab8",
        "sendL1FundedUnsignedTransactionToFork(uint256,uint256,uint256,address,bytes)": "e6bd12cf",
        "sendL2Message(bytes)": "b75436bb",
        "sendL2MessageFromOrigin(bytes)": "1fe927cf",
        "sendUnsignedTransaction(uint256,uint256,uint256,address,uint256,bytes)": "5075788b",
        "sendUnsignedTransactionToFork(uint256,uint256,uint256,address,uint256,bytes)": "00f72382",
        "sendWithdrawEthToFork(uint256,uint256,uint256,uint256,address)": "70665f14",
        "sequencerInbox()": "ee35f327",
        "setAllowList(address[],bool[])": "e3de72a5",
        "setAllowListEnabled(bool)": "efeadb6d",
        "unpause()": "3f4ba83a",
        "unsafeCreateRetryableTicket(address,uint256,uint256,address,address,uint256,uint256,bytes)": "6e6e8a6a"
    },
    "gasEstimates": {
        "creation": {
            "codeDepositCost": "2086000",
            "executionCost": "infinite",
            "totalCost": "infinite"
        },
        "external": {
            "allowListEnabled()": "2395",
            "bridge()": "2381",
            "calculateRetryableSubmissionFee(uint256,uint256)": "infinite",
            "createRetryableTicket(address,uint256,uint256,address,address,uint256,uint256,bytes)": "infinite",
            "createRetryableTicketNoRefundAliasRewrite(address,uint256,uint256,address,address,uint256,uint256,bytes)": "infinite",
            "depositEth()": "infinite",
            "depositEth(uint256)": "infinite",
            "getProxyAdmin()": "2365",
            "initialize(address,address)": "infinite",
            "isAllowed(address)": "2636",
            "maxDataSize()": "infinite",
            "pause()": "infinite",
            "paused()": "2394",
            "postUpgradeInit(address)": "infinite",
            "sendContractTransaction(uint256,uint256,address,uint256,bytes)": "infinite",
            "sendL1FundedContractTransaction(uint256,uint256,address,bytes)": "infinite",
            "sendL1FundedUnsignedTransaction(uint256,uint256,uint256,address,bytes)": "infinite",
            "sendL1FundedUnsignedTransactionToFork(uint256,uint256,uint256,address,bytes)": "infinite",
            "sendL2Message(bytes)": "infinite",
            "sendL2MessageFromOrigin(bytes)": "infinite",
            "sendUnsignedTransaction(uint256,uint256,uint256,address,uint256,bytes)": "infinite",
            "sendUnsignedTransactionToFork(uint256,uint256,uint256,address,uint256,bytes)": "infinite",
            "sendWithdrawEthToFork(uint256,uint256,uint256,uint256,address)": "infinite",
            "sequencerInbox()": "2425",
            "setAllowList(address[],bool[])": "infinite",
            "setAllowListEnabled(bool)": "infinite",
            "unpause()": "infinite",
            "unsafeCreateRetryableTicket(address,uint256,uint256,address,address,uint256,uint256,bytes)": "infinite"
        },
        "internal": {
            "_deliverToBridge(uint8,address,bytes32,uint256)": "infinite"
        }
    }
}