{
    "contractName": "TestContract",
    "abi": [
        {
            "anonymous": false,
            "inputs": [
                {
                    "indexed": true,
                    "internalType": "uint256",
                    "name": "value",
                    "type": "uint256"
                },
                {
                    "indexed": false,
                    "internalType": "string",
                    "name": "message",
                    "type": "string"
                }
            ],
            "name": "TestEvent",
            "type": "event"
        },
        {
            "inputs": [],
            "name": "triggerEvent",
            "outputs": [],
            "stateMutability": "nonpayable",
            "type": "function"
        }
    ],
    "bytecode": "6080806040523460135760b7908160188239f35b5f80fdfe60808060405260043610156011575f80fd5b5f3560e01c63ede48fb7146023575f80fd5b34607d575f366003190112607d577f1be7c4acf0f0eba0992603759c32d028600239a9034d28a643e234992e646aa46060826020607b9452600f60208201526e115d995b9d08151c9a59d9d95c9959608a1b6040820152a2005b5f80fdfea26469706673582212200624cfd4245517ca2a0bbbdf871047667301969268f344ada72762709154c25564736f6c634300081b0033",
    "sourcePath": "c:/Contracts/nitro-contracts-main/nitro-contracts-main/test/foundry/TestContractTest.sol",
    "compiler": {
        "name": "solc",
        "version": "0.8.27+commit.40a35a09"
    },
    "functionHashes": {
        "triggerEvent()": "ede48fb7"
    },
    "gasEstimates": {
        "creation": {
            "codeDepositCost": "36600",
            "executionCost": "93",
            "totalCost": "36693"
        },
        "external": {
            "triggerEvent()": "2083"
        }
    }
}